{
  "contractName": "TCT",
  "abi": [
    {
      "inputs": [
        {
          "internalType": "address",
          "name": "_trustedForwarder",
          "type": "address"
        }
      ],
      "stateMutability": "nonpayable",
      "type": "constructor"
    },
    {
      "anonymous": false,
      "inputs": [
        {
          "indexed": true,
          "internalType": "bytes32",
          "name": "id",
          "type": "bytes32"
        }
      ],
      "name": "ChainlinkCancelled",
      "type": "event"
    },
    {
      "anonymous": false,
      "inputs": [
        {
          "indexed": true,
          "internalType": "bytes32",
          "name": "id",
          "type": "bytes32"
        }
      ],
      "name": "ChainlinkFulfilled",
      "type": "event"
    },
    {
      "anonymous": false,
      "inputs": [
        {
          "indexed": true,
          "internalType": "bytes32",
          "name": "id",
          "type": "bytes32"
        }
      ],
      "name": "ChainlinkRequested",
      "type": "event"
    },
    {
      "anonymous": false,
      "inputs": [
        {
          "indexed": false,
          "internalType": "string",
          "name": "nftRequestString",
          "type": "string"
        }
      ],
      "name": "RequestComplete",
      "type": "event"
    },
    {
      "inputs": [
        {
          "internalType": "address",
          "name": "forwarder",
          "type": "address"
        }
      ],
      "name": "isTrustedForwarder",
      "outputs": [
        {
          "internalType": "bool",
          "name": "",
          "type": "bool"
        }
      ],
      "stateMutability": "view",
      "type": "function",
      "constant": true
    },
    {
      "inputs": [],
      "name": "trustedForwarder",
      "outputs": [
        {
          "internalType": "address",
          "name": "",
          "type": "address"
        }
      ],
      "stateMutability": "view",
      "type": "function",
      "constant": true
    },
    {
      "inputs": [],
      "name": "truthTokens",
      "outputs": [
        {
          "internalType": "contract TruthToken",
          "name": "",
          "type": "address"
        }
      ],
      "stateMutability": "view",
      "type": "function",
      "constant": true
    },
    {
      "inputs": [
        {
          "internalType": "address",
          "name": "",
          "type": "address"
        }
      ],
      "name": "twitterAccountVerificationMap",
      "outputs": [
        {
          "internalType": "string",
          "name": "",
          "type": "string"
        }
      ],
      "stateMutability": "view",
      "type": "function",
      "constant": true
    },
    {
      "inputs": [
        {
          "internalType": "string",
          "name": "_tweet",
          "type": "string"
        },
        {
          "internalType": "string",
          "name": "_randid",
          "type": "string"
        }
      ],
      "name": "requestTwitterVerification",
      "outputs": [
        {
          "internalType": "bytes32",
          "name": "requestId",
          "type": "bytes32"
        }
      ],
      "stateMutability": "nonpayable",
      "type": "function"
    },
    {
      "inputs": [
        {
          "internalType": "bytes32",
          "name": "_requestId",
          "type": "bytes32"
        },
        {
          "internalType": "bytes32",
          "name": "_username",
          "type": "bytes32"
        }
      ],
      "name": "fulfillTwitterAccountRequest",
      "outputs": [],
      "stateMutability": "payable",
      "type": "function",
      "payable": true
    },
    {
      "inputs": [
        {
          "internalType": "address",
          "name": "_account",
          "type": "address"
        }
      ],
      "name": "getTwitterVerificationStatus",
      "outputs": [
        {
          "internalType": "string",
          "name": "",
          "type": "string"
        }
      ],
      "stateMutability": "view",
      "type": "function",
      "constant": true
    },
    {
      "inputs": [
        {
          "internalType": "address",
          "name": "_account",
          "type": "address"
        }
      ],
      "name": "vouchUser",
      "outputs": [],
      "stateMutability": "payable",
      "type": "function",
      "payable": true
    },
    {
      "inputs": [
        {
          "internalType": "address",
          "name": "_account",
          "type": "address"
        }
      ],
      "name": "truthBalance",
      "outputs": [
        {
          "internalType": "uint256",
          "name": "",
          "type": "uint256"
        }
      ],
      "stateMutability": "view",
      "type": "function",
      "constant": true
    },
    {
      "inputs": [
        {
          "internalType": "address",
          "name": "_trustedForwarder",
          "type": "address"
        }
      ],
      "name": "setTrustForwarder",
      "outputs": [],
      "stateMutability": "nonpayable",
      "type": "function"
    },
    {
      "inputs": [],
      "name": "versionRecipient",
      "outputs": [
        {
          "internalType": "string",
          "name": "",
          "type": "string"
        }
      ],
      "stateMutability": "pure",
      "type": "function",
      "constant": true
    },
    {
      "inputs": [],
      "name": "withdrawLink",
      "outputs": [],
      "stateMutability": "nonpayable",
      "type": "function"
    }
  ],
  "bytecode": "0x608060405260016004553480156200001657600080fd5b50604051620028b2380380620028b2833981016040819052620000399162000202565b600780546001600160a01b031916331790556200005562000143565b600880546001600160a01b03191673c57b33452b4f7bb189bb5afae9cc4aba1f7a4fd81790557f62633734363631316562656534306133393839626265343965313261303262396009557f3734303166333138313237313438613839346330306332393265343836666664600a5567016345785d8a0000600b556040516a0155d84cc7d1f7db94000090620000ea90620001f4565b908152602001604051809103906000f0801580156200010d573d6000803e3d6000fd5b50600e80546001600160a01b039283166001600160a01b0319918216179091556006805493909216921691909117905562000234565b620001f273c89bd4e1632d3a43cb03aaad5262cbe4038bc5716001600160a01b03166338cc48316040518163ffffffff1660e01b815260040160206040518083038186803b1580156200019557600080fd5b505afa158015620001aa573d6000803e3d6000fd5b505050506040513d601f19601f82011682018060405250810190620001d0919062000202565b600280546001600160a01b0319166001600160a01b0392909216919091179055565b565b610b9d8062001d1583390190565b6000602082840312156200021557600080fd5b81516001600160a01b03811681146200022d57600080fd5b9392505050565b611ad180620002446000396000f3fe6080604052600436106100a75760003560e01c80637da0a877116100645780637da0a877146101ab5780638dc654a2146101c9578063d01e3c04146101de578063ddf0b3da146101fe578063de5e527e1461021e578063df311df71461024c57600080fd5b80632b460dfc146100ac57806334c2e198146100e25780633e302c83146100f7578063486ff0cd1461012f57806348edea1214610159578063572b6c051461016c575b600080fd5b3480156100b857600080fd5b506100cc6100c736600461159d565b61026c565b6040516100d99190611613565b60405180910390f35b6100f56100f036600461159d565b610306565b005b34801561010357600080fd5b50600e54610117906001600160a01b031681565b6040516001600160a01b0390911681526020016100d9565b34801561013b57600080fd5b506040805180820190915260018152603160f81b60208201526100cc565b6100f5610167366004611626565b61045a565b34801561017857600080fd5b5061019b61018736600461159d565b6006546001600160a01b0391821691161490565b60405190151581526020016100d9565b3480156101b757600080fd5b506006546001600160a01b0316610117565b3480156101d557600080fd5b506100f5610648565b3480156101ea57600080fd5b506100cc6101f936600461159d565b610782565b34801561020a57600080fd5b506100f561021936600461159d565b61082e565b34801561022a57600080fd5b5061023e61023936600461159d565b610876565b6040519081526020016100d9565b34801561025857600080fd5b5061023e6102673660046116eb565b6108fa565b601060205260009081526040902080546102859061174f565b80601f01602080910402602001604051908101604052809291908181526020018280546102b19061174f565b80156102fe5780601f106102d3576101008083540402835291602001916102fe565b820191906000526020600020905b8154815290600101906020018083116102e157829003601f168201915b505050505081565b33600090815260106020526040902080546103209061174f565b151590506103695760405162461bcd60e51b8152602060048201526011602482015270155cd95c881b9bdd081d995c9a599a5959607a1b60448201526064015b60405180910390fd5b6001600160a01b0381166000908152600d6020908152604080832033845260010190915290205460ff16156103d25760405162461bcd60e51b815260206004820152600f60248201526e105b1c9958591e481d9bdd58da1959608a1b6044820152606401610360565b6001600160a01b0381166000908152600d6020908152604080832033845260010190915290205460ff16610457576001600160a01b0381166000908152600d6020908152604080832080546001818101835582865284862090910180546001600160a01b031916339081179091558552908101909252909120805460ff191690911790555b50565b60008281526005602052604090205482906001600160a01b031633146104d35760405162461bcd60e51b815260206004820152602860248201527f536f75726365206d75737420626520746865206f7261636c65206f6620746865604482015267081c995c5d595cdd60c21b6064820152608401610360565b60008181526005602052604080822080546001600160a01b03191690555182917f7cc135e0cebb02c3480ae5d74d377283180a2601f8f644edf7987b009316c63a91a26000838152600f60205260409020546001600160a01b031661053783610a27565b6001600160a01b0382166000908152601060209081526040909120825161056493919291909101906114c9565b50600e5460405163a9059cbb60e01b81526001600160a01b038381166004830152678ac7230489e8000060248301529091169063a9059cbb90604401602060405180830381600087803b1580156105ba57600080fd5b505af11580156105ce573d6000803e3d6000fd5b505050506040513d601f19601f820116820180604052508101906105f29190611784565b507f463c511277010e89c9653089314c7a91266a1c7e48a8ea1a9a59f356e74aba9e60405161063a906020808252600590820152642fbab9b2b960d91b604082015260600190565b60405180910390a150505050565b6007546001600160a01b031633146106725760405162461bcd60e51b8152600401610360906117a6565b6040516370a0823160e01b815230600482015273a36085f69e2889c224210f603d836748e7dc008890819063a9059cbb90339083906370a082319060240160206040518083038186803b1580156106c857600080fd5b505afa1580156106dc573d6000803e3d6000fd5b505050506040513d601f19601f8201168201806040525081019061070091906117eb565b6040516001600160e01b031960e085901b1681526001600160a01b0390921660048301526024820152604401602060405180830381600087803b15801561074657600080fd5b505af115801561075a573d6000803e3d6000fd5b505050506040513d601f19601f8201168201806040525081019061077e9190611784565b5050565b6001600160a01b03811660009081526010602052604090208054606091906107a99061174f565b80601f01602080910402602001604051908101604052809291908181526020018280546107d59061174f565b80156108225780601f106107f757610100808354040283529160200191610822565b820191906000526020600020905b81548152906001019060200180831161080557829003601f168201915b50505050509050919050565b6007546001600160a01b031633146108585760405162461bcd60e51b8152600401610360906117a6565b600680546001600160a01b0319166001600160a01b03831617905550565b600e546040516370a0823160e01b81526001600160a01b03838116600483015260009216906370a082319060240160206040518083038186803b1580156108bc57600080fd5b505afa1580156108d0573d6000803e3d6000fd5b505050506040513d601f19601f820116820180604052508101906108f491906117eb565b92915050565b600080610911600a54306348edea1260e01b610b5e565b905061098d6040518060400160405280600381526020016219d95d60ea1b815250610985604051806080016040528060418152602001611a5b6041913986604051806040016040528060078152602001662674776565743d60c81b8152508960405180602001604052806000815250610b83565b839190610e68565b6109de604051806040016040528060048152602001630e0c2e8d60e31b81525060405180604001604052806008815260200167757365726e616d6560c01b81525083610e689092919063ffffffff16565b600854600b546109f9916001600160a01b0316908390610e8b565b600c8181556000918252600f602052604090912080546001600160a01b031916331790555491505092915050565b606060005b60208160ff16108015610a605750828160ff1660208110610a4f57610a4f611804565b1a60f81b6001600160f81b03191615155b15610a775780610a6f81611830565b915050610a2c565b60008160ff1667ffffffffffffffff811115610a9557610a95611648565b6040519080825280601f01601f191660200182016040528015610abf576020820181803683370190505b509050600091505b60208260ff16108015610afb5750838260ff1660208110610aea57610aea611804565b1a60f81b6001600160f81b03191615155b15610b5757838260ff1660208110610b1557610b15611804565b1a60f81b818360ff1681518110610b2e57610b2e611804565b60200101906001600160f81b031916908160001a90535081610b4f81611830565b925050610ac7565b9392505050565b610b6661154d565b610b6e61154d565b610b7a81868686610f1e565b95945050505050565b805182518451865188516060948a948a948a948a948a94600094909390929091610bad9190611850565b610bb79190611850565b610bc19190611850565b610bcb9190611850565b67ffffffffffffffff811115610be357610be3611648565b6040519080825280601f01601f191660200182016040528015610c0d576020820181803683370190505b509050806000805b8851811015610c8557888181518110610c3057610c30611804565b01602001516001600160f81b0319168383610c4a81611868565b945081518110610c5c57610c5c611804565b60200101906001600160f81b031916908160001a90535080610c7d81611868565b915050610c15565b5060005b8751811015610cf957878181518110610ca457610ca4611804565b01602001516001600160f81b0319168383610cbe81611868565b945081518110610cd057610cd0611804565b60200101906001600160f81b031916908160001a90535080610cf181611868565b915050610c89565b5060005b8651811015610d6d57868181518110610d1857610d18611804565b01602001516001600160f81b0319168383610d3281611868565b945081518110610d4457610d44611804565b60200101906001600160f81b031916908160001a90535080610d6581611868565b915050610cfd565b5060005b8551811015610de157858181518110610d8c57610d8c611804565b01602001516001600160f81b0319168383610da681611868565b945081518110610db857610db8611804565b60200101906001600160f81b031916908160001a90535080610dd981611868565b915050610d71565b5060005b8451811015610e5557848181518110610e0057610e00611804565b01602001516001600160f81b0319168383610e1a81611868565b945081518110610e2c57610e2c611804565b60200101906001600160f81b031916908160001a90535080610e4d81611868565b915050610de5565b50909d9c50505050505050505050505050565b6080830151610e779083610f64565b6080830151610e869082610f64565b505050565b600454600090610e9c816001611850565b600455835160408086015160808701515191516000936320214ca360e11b93610ed49386938493923092918a91600191602401611883565b60408051601f198184030181529190526020810180516001600160e01b03166001600160e01b0319909316929092179091529050610f1486838684610f7b565b9695505050505050565b610f2661154d565b610f3685608001516101006110e8565b50508284526001600160a01b03821660208501526001600160e01b031981166040850152835b949350505050565b610f71826003835161114d565b610e868282611262565b6040516bffffffffffffffffffffffff193060601b1660208201526034810184905260009060540160408051808303601f1901815282825280516020918201206000818152600590925291812080546001600160a01b0319166001600160a01b038a1617905590925082917fb5e6e01e79f91267dc17b4e6314d5d4d03593d2ceee0fbb452b750bd70ea5af99190a2600254604051630200057560e51b81526001600160a01b0390911690634000aea09061103e908890879087906004016118eb565b602060405180830381600087803b15801561105857600080fd5b505af115801561106c573d6000803e3d6000fd5b505050506040513d601f19601f820116820180604052508101906110909190611784565b610f5c5760405162461bcd60e51b815260206004820152602360248201527f756e61626c6520746f207472616e73666572416e6443616c6c20746f206f7261604482015262636c6560e81b6064820152608401610360565b604080518082019091526060815260006020820152611108602083611912565b1561113057611118602083611912565b611123906020611934565b61112d9083611850565b91505b506020828101829052604080518085526000815290920101905290565b60178167ffffffffffffffff1611611178576111728360e0600585901b168317611289565b50505050565b60ff8167ffffffffffffffff16116111b65761119f836018611fe0600586901b1617611289565b506111728367ffffffffffffffff831660016112ae565b61ffff8167ffffffffffffffff16116111f5576111de836019611fe0600586901b1617611289565b506111728367ffffffffffffffff831660026112ae565b63ffffffff8167ffffffffffffffff16116112365761121f83601a611fe0600586901b1617611289565b506111728367ffffffffffffffff831660046112ae565b61124b83601b611fe0600586901b1617611289565b506111728367ffffffffffffffff831660086112ae565b604080518082019091526060815260006020820152610b57838460000151518485516112d4565b604080518082019091526060815260006020820152610b5783846000015151846113be565b604080518082019091526060815260006020820152610f5c84856000015151858561141a565b60408051808201909152606081526000602082015282518211156112f757600080fd5b60208501516113068386611850565b11156113395761133985611329876020015187866113249190611850565b61149b565b61133490600261194b565b6114b2565b6000808651805187602083010193508088870111156113585787860182525b505050602084015b602084106113985780518252611377602083611850565b9150611384602082611850565b9050611391602085611934565b9350611360565b51815160001960208690036101000a019081169019919091161790525083949350505050565b604080518082019091526060815260006020820152836020015183106113f3576113f38485602001516002611334919061194b565b835180516020858301018481535080851415611410576001810182525b5093949350505050565b604080518082019091526060815260006020820152602085015161143e8584611850565b111561145257611452856113298685611850565b6000600161146284610100611a4e565b61146c9190611934565b90508551838682010185831982511617815250805184870111156114905783860181525b509495945050505050565b6000818311156114ac5750816108f4565b50919050565b81516114be83836110e8565b506111728382611262565b8280546114d59061174f565b90600052602060002090601f0160209004810192826114f7576000855561153d565b82601f1061151057805160ff191683800117855561153d565b8280016001018555821561153d579182015b8281111561153d578251825591602001919060010190611522565b50611549929150611588565b5090565b6040805160a0810182526000808252602080830182905282840182905260608084018390528451808601909552845283015290608082015290565b5b808211156115495760008155600101611589565b6000602082840312156115af57600080fd5b81356001600160a01b0381168114610b5757600080fd5b6000815180845260005b818110156115ec576020818501810151868301820152016115d0565b818111156115fe576000602083870101525b50601f01601f19169290920160200192915050565b602081526000610b5760208301846115c6565b6000806040838503121561163957600080fd5b50508035926020909101359150565b634e487b7160e01b600052604160045260246000fd5b600082601f83011261166f57600080fd5b813567ffffffffffffffff8082111561168a5761168a611648565b604051601f8301601f19908116603f011681019082821181831017156116b2576116b2611648565b816040528381528660208588010111156116cb57600080fd5b836020870160208301376000602085830101528094505050505092915050565b600080604083850312156116fe57600080fd5b823567ffffffffffffffff8082111561171657600080fd5b6117228683870161165e565b9350602085013591508082111561173857600080fd5b506117458582860161165e565b9150509250929050565b600181811c9082168061176357607f821691505b602082108114156114ac57634e487b7160e01b600052602260045260246000fd5b60006020828403121561179657600080fd5b81518015158114610b5757600080fd5b60208082526025908201527f4f6e6c79204f776e65722063616e20706572666f726d2074686973206f70657260408201526430ba34b7b760d91b606082015260800190565b6000602082840312156117fd57600080fd5b5051919050565b634e487b7160e01b600052603260045260246000fd5b634e487b7160e01b600052601160045260246000fd5b600060ff821660ff8114156118475761184761181a565b60010192915050565b600082198211156118635761186361181a565b500190565b600060001982141561187c5761187c61181a565b5060010190565b6001600160a01b0389811682526020820189905260408201889052861660608201526001600160e01b03198516608082015260a0810184905260c0810183905261010060e082018190526000906118dc838201856115c6565b9b9a5050505050505050505050565b60018060a01b0384168152826020820152606060408201526000610b7a60608301846115c6565b60008261192f57634e487b7160e01b600052601260045260246000fd5b500690565b6000828210156119465761194661181a565b500390565b60008160001904831182151516156119655761196561181a565b500290565b600181815b808511156119a557816000190482111561198b5761198b61181a565b8085161561199857918102915b93841c939080029061196f565b509250929050565b6000826119bc575060016108f4565b816119c9575060006108f4565b81600181146119df57600281146119e957611a05565b60019150506108f4565b60ff8411156119fa576119fa61181a565b50506001821b6108f4565b5060208310610133831016604e8410600b8410161715611a28575081810a6108f4565b611a32838361196a565b8060001904821115611a4657611a4661181a565b029392505050565b6000610b5783836119ad56fe68747470733a2f2f7468652d636f6c6c6563746976652d74727574682e6865726f6b756170702e636f6d2f747769747465722f7665726966793f72616e6469643da2646970667358221220991e2cf35d59c9a81f406d925ca82002b2bbd16f4dd7d6b4e799a02be2fda0de64736f6c6343000809003360806040523480156200001157600080fd5b5060405162000b9d38038062000b9d83398101604081905262000034916200024b565b6040518060400160405280600a8152602001692a393aba342a37b5b2b760b11b815250604051806040016040528060038152602001621510d560ea1b81525081600390805190602001906200008b929190620001a5565b508051620000a1906004906020840190620001a5565b505050620000b63382620000bd60201b60201c565b50620002c9565b6001600160a01b038216620001185760405162461bcd60e51b815260206004820152601f60248201527f45524332303a206d696e7420746f20746865207a65726f206164647265737300604482015260640160405180910390fd5b80600260008282546200012c919062000265565b90915550506001600160a01b038216600090815260208190526040812080548392906200015b90849062000265565b90915550506040518181526001600160a01b038316906000907fddf252ad1be2c89b69c2b068fc378daa952ba7f163c4a11628f55a4df523b3ef9060200160405180910390a35050565b828054620001b3906200028c565b90600052602060002090601f016020900481019282620001d7576000855562000222565b82601f10620001f257805160ff191683800117855562000222565b8280016001018555821562000222579182015b828111156200022257825182559160200191906001019062000205565b506200023092915062000234565b5090565b5b8082111562000230576000815560010162000235565b6000602082840312156200025e57600080fd5b5051919050565b600082198211156200028757634e487b7160e01b600052601160045260246000fd5b500190565b600181811c90821680620002a157607f821691505b60208210811415620002c357634e487b7160e01b600052602260045260246000fd5b50919050565b6108c480620002d96000396000f3fe608060405234801561001057600080fd5b50600436106100a95760003560e01c80633950935111610071578063395093511461012357806370a082311461013657806395d89b411461015f578063a457c2d714610167578063a9059cbb1461017a578063dd62ed3e1461018d57600080fd5b806306fdde03146100ae578063095ea7b3146100cc57806318160ddd146100ef57806323b872dd14610101578063313ce56714610114575b600080fd5b6100b66101c6565b6040516100c39190610701565b60405180910390f35b6100df6100da366004610772565b610258565b60405190151581526020016100c3565b6002545b6040519081526020016100c3565b6100df61010f36600461079c565b61026e565b604051601281526020016100c3565b6100df610131366004610772565b61031d565b6100f36101443660046107d8565b6001600160a01b031660009081526020819052604090205490565b6100b6610359565b6100df610175366004610772565b610368565b6100df610188366004610772565b610401565b6100f361019b3660046107fa565b6001600160a01b03918216600090815260016020908152604080832093909416825291909152205490565b6060600380546101d59061082d565b80601f01602080910402602001604051908101604052809291908181526020018280546102019061082d565b801561024e5780601f106102235761010080835404028352916020019161024e565b820191906000526020600020905b81548152906001019060200180831161023157829003601f168201915b5050505050905090565b600061026533848461040e565b50600192915050565b600061027b848484610532565b6001600160a01b0384166000908152600160209081526040808320338452909152902054828110156103055760405162461bcd60e51b815260206004820152602860248201527f45524332303a207472616e7366657220616d6f756e74206578636565647320616044820152676c6c6f77616e636560c01b60648201526084015b60405180910390fd5b610312853385840361040e565b506001949350505050565b3360008181526001602090815260408083206001600160a01b03871684529091528120549091610265918590610354908690610868565b61040e565b6060600480546101d59061082d565b3360009081526001602090815260408083206001600160a01b0386168452909152812054828110156103ea5760405162461bcd60e51b815260206004820152602560248201527f45524332303a2064656372656173656420616c6c6f77616e63652062656c6f77604482015264207a65726f60d81b60648201526084016102fc565b6103f7338585840361040e565b5060019392505050565b6000610265338484610532565b6001600160a01b0383166104705760405162461bcd60e51b8152602060048201526024808201527f45524332303a20617070726f76652066726f6d20746865207a65726f206164646044820152637265737360e01b60648201526084016102fc565b6001600160a01b0382166104d15760405162461bcd60e51b815260206004820152602260248201527f45524332303a20617070726f766520746f20746865207a65726f206164647265604482015261737360f01b60648201526084016102fc565b6001600160a01b0383811660008181526001602090815260408083209487168084529482529182902085905590518481527f8c5be1e5ebec7d5bd14f71427d1e84f3dd0314c0f7b2291e5b200ac8c7c3b925910160405180910390a3505050565b6001600160a01b0383166105965760405162461bcd60e51b815260206004820152602560248201527f45524332303a207472616e736665722066726f6d20746865207a65726f206164604482015264647265737360d81b60648201526084016102fc565b6001600160a01b0382166105f85760405162461bcd60e51b815260206004820152602360248201527f45524332303a207472616e7366657220746f20746865207a65726f206164647260448201526265737360e81b60648201526084016102fc565b6001600160a01b038316600090815260208190526040902054818110156106705760405162461bcd60e51b815260206004820152602660248201527f45524332303a207472616e7366657220616d6f756e7420657863656564732062604482015265616c616e636560d01b60648201526084016102fc565b6001600160a01b038085166000908152602081905260408082208585039055918516815290812080548492906106a7908490610868565b92505081905550826001600160a01b0316846001600160a01b03167fddf252ad1be2c89b69c2b068fc378daa952ba7f163c4a11628f55a4df523b3ef846040516106f391815260200190565b60405180910390a350505050565b600060208083528351808285015260005b8181101561072e57858101830151858201604001528201610712565b81811115610740576000604083870101525b50601f01601f1916929092016040019392505050565b80356001600160a01b038116811461076d57600080fd5b919050565b6000806040838503121561078557600080fd5b61078e83610756565b946020939093013593505050565b6000806000606084860312156107b157600080fd5b6107ba84610756565b92506107c860208501610756565b9150604084013590509250925092565b6000602082840312156107ea57600080fd5b6107f382610756565b9392505050565b6000806040838503121561080d57600080fd5b61081683610756565b915061082460208401610756565b90509250929050565b600181811c9082168061084157607f821691505b6020821081141561086257634e487b7160e01b600052602260045260246000fd5b50919050565b6000821982111561088957634e487b7160e01b600052601160045260246000fd5b50019056fea26469706673582212201b802a8bd926f28442a3a8f65575a6aacd86cd9627eeedf0b65a49a0a761594a64736f6c63430008090033",
  "immutableReferences": {},
  "source": "// SPDX-License-Identifier: MIT\r\npragma solidity ^0.8.7;\r\n\r\nimport \"@chainlink/contracts/src/v0.8/ChainlinkClient.sol\";\r\nimport \"@openzeppelin/contracts/token/ERC20/ERC20.sol\";\r\nimport \"@opengsn/contracts/src/BaseRelayRecipient.sol\";\r\nimport \"./TruthToken.sol\";\r\n\r\n/**\r\n * THIS IS AN EXAMPLE CONTRACT WHICH USES HARDCODED VALUES FOR CLARITY.\r\n * PLEASE DO NOT USE THIS CODE IN PRODUCTION.\r\n */\r\nstruct Set {\r\n    address[] values;\r\n    mapping(address => bool) is_in;\r\n}\r\n\r\ncontract TCT is ChainlinkClient, BaseRelayRecipient {\r\n    using Chainlink for Chainlink.Request;\r\n\r\n    address private owner;\r\n    address private oracle;\r\n    bytes32 private boolJobId;\r\n    bytes32 private stringJobId;\r\n    uint256 private fee;\r\n    bytes32 private requestIdentifier;\r\n    mapping(address => Set) private vouchesMap;\r\n\r\n    TruthToken public truthTokens;\r\n\r\n    mapping(bytes32 => address) internal requestTwitterAccountmap;\r\n    mapping(address => string) public twitterAccountVerificationMap;\r\n\r\n    event RequestComplete(string nftRequestString);\r\n\r\n    constructor(address _trustedForwarder) {\r\n        owner = msg.sender;\r\n\r\n        setPublicChainlinkToken();\r\n        oracle = 0xc57B33452b4F7BB189bB5AfaE9cc4aBa1f7a4FD8;\r\n        boolJobId = \"bc746611ebee40a3989bbe49e12a02b9\";\r\n        stringJobId = \"7401f318127148a894c00c292e486ffd\";\r\n        fee = 0.1 * 10**18; // (Varies by network and job)\r\n\r\n        truthTokens = new TruthToken(1614317 * 10**18); // Initial mint of Truth Tokens\r\n\r\n        _setTrustedForwarder(_trustedForwarder);\r\n    }\r\n    modifier onlyOwner() {\r\n        require(owner == msg.sender, \"Only Owner can perform this operation\");\r\n        _;\r\n    }\r\n\r\n    // Twitter Account Verification\r\n    function requestTwitterVerification(\r\n        string memory _tweet,\r\n        string memory _randid\r\n    ) public returns (bytes32 requestId) {\r\n        Chainlink.Request memory request = buildChainlinkRequest(\r\n            stringJobId,\r\n            address(this),\r\n            this.fulfillTwitterAccountRequest.selector\r\n        );\r\n        request.add(\r\n            \"get\",\r\n            strConcat(\r\n                \"https://the-collective-truth.herokuapp.com/twitter/verify?randid=\",\r\n                _randid,\r\n                \"&tweet=\",\r\n                _tweet,\r\n                \"\"\r\n            )\r\n        );\r\n        request.add(\"path\", \"username\");\r\n        requestIdentifier = sendChainlinkRequestTo(oracle, request, fee);\r\n        requestTwitterAccountmap[requestIdentifier] = msg.sender;\r\n        return requestIdentifier;\r\n    }\r\n\r\n    function fulfillTwitterAccountRequest(bytes32 _requestId, bytes32 _username)\r\n        public\r\n        payable\r\n        recordChainlinkFulfillment(_requestId)\r\n    {\r\n        address _user = requestTwitterAccountmap[_requestId];\r\n        twitterAccountVerificationMap[_user] = bytes32ToString(_username); // update Twitter Account username\r\n        truthTokens.transfer(_user, 10**19); // Joining Bonus\r\n        emit RequestComplete(\"_user\"); // event to be listened by the client\r\n    }\r\n\r\n    function getTwitterVerificationStatus(address _account)\r\n        public\r\n        view\r\n        returns (string memory)\r\n    {\r\n        return twitterAccountVerificationMap[_account];\r\n    }\r\n\r\n    // Vouching for users\r\n    function vouchUser(address _account) public payable {        \r\n        require(\r\n            bytes(twitterAccountVerificationMap[msg.sender]).length != 0,\r\n            \"User not verified\"\r\n        );\r\n        require(\r\n            vouchesMap[_account].is_in[msg.sender] == false,\r\n            \"Already vouched\"\r\n        );\r\n\r\n        \r\n        if (vouchesMap[_account].is_in[msg.sender] == false) {\r\n            vouchesMap[_account].values.push(msg.sender);\r\n            vouchesMap[_account].is_in[msg.sender] = true;\r\n        }\r\n    }\r\n\r\n    // Truth Tokens\r\n    function truthBalance(address _account) public view returns (uint256) {\r\n        return truthTokens.balanceOf(_account);\r\n    }    \r\n\r\n    // UTILS\r\n    function strConcat(\r\n        string memory _a,\r\n        string memory _b,\r\n        string memory _c,\r\n        string memory _d,\r\n        string memory _e\r\n    ) internal pure returns (string memory) {\r\n        bytes memory _ba = bytes(_a);\r\n        bytes memory _bb = bytes(_b);\r\n        bytes memory _bc = bytes(_c);\r\n        bytes memory _bd = bytes(_d);\r\n        bytes memory _be = bytes(_e);\r\n        string memory abcde = new string(\r\n            _ba.length + _bb.length + _bc.length + _bd.length + _be.length\r\n        );\r\n        bytes memory babcde = bytes(abcde);\r\n        uint256 k = 0;\r\n        uint256 i = 0;\r\n        for (i = 0; i < _ba.length; i++) babcde[k++] = _ba[i];\r\n        for (i = 0; i < _bb.length; i++) babcde[k++] = _bb[i];\r\n        for (i = 0; i < _bc.length; i++) babcde[k++] = _bc[i];\r\n        for (i = 0; i < _bd.length; i++) babcde[k++] = _bd[i];\r\n        for (i = 0; i < _be.length; i++) babcde[k++] = _be[i];\r\n        return string(babcde);\r\n    }\r\n\r\n    function bytes32ToString(bytes32 _bytes32)\r\n        internal\r\n        pure\r\n        returns (string memory)\r\n    {\r\n        uint8 i = 0;\r\n        while (i < 32 && _bytes32[i] != 0) {\r\n            i++;\r\n        }\r\n        bytes memory bytesArray = new bytes(i);\r\n        for (i = 0; i < 32 && _bytes32[i] != 0; i++) {\r\n            bytesArray[i] = _bytes32[i];\r\n        }\r\n        return string(bytesArray);\r\n    }\r\n\r\n    // BICONOMY\r\n    function setTrustForwarder(address _trustedForwarder) public onlyOwner {\r\n        _setTrustedForwarder(_trustedForwarder);\r\n    }\r\n\r\n    function versionRecipient() external pure override returns (string memory) {\r\n        return \"1\";\r\n    }\r\n\r\n\r\n    function withdrawLink() external onlyOwner{        \r\n        ERC20 tokenContract = ERC20(0xa36085F69e2889c224210F603D836748e7dC0088);\r\n        tokenContract.transfer(\r\n            msg.sender,\r\n            tokenContract.balanceOf(address(this))\r\n        );\r\n    }\r\n}\r\n",
  "sourcePath": "/home/harish/Documents/Development/TCT/web-client/Truffle/contracts/TCT.sol",
  "compiler": {
    "name": "solc",
    "version": "0.8.9+commit.e5eed63a.Emscripten.clang"
  },
  "schemaVersion": "3.4.4",
  "updatedAt": "2022-01-30T06:35:23.628Z",
  "networkType": "ethereum",
  "devdoc": {
    "kind": "dev",
    "methods": {},
    "version": 1
  },
  "userdoc": {
    "kind": "user",
    "methods": {
      "isTrustedForwarder(address)": {
        "notice": "return if the forwarder is trusted to forward relayed transactions to us. the forwarder is required to verify the sender's signature, and verify the call is not a replay."
      }
    },
    "version": 1
  }
}