{
  "contractName": "TCT",
  "abi": [
    {
      "inputs": [
        {
          "internalType": "address",
          "name": "_trustedForwarder",
          "type": "address"
        }
      ],
      "stateMutability": "nonpayable",
      "type": "constructor"
    },
    {
      "anonymous": false,
      "inputs": [
        {
          "indexed": true,
          "internalType": "bytes32",
          "name": "id",
          "type": "bytes32"
        }
      ],
      "name": "ChainlinkCancelled",
      "type": "event"
    },
    {
      "anonymous": false,
      "inputs": [
        {
          "indexed": true,
          "internalType": "bytes32",
          "name": "id",
          "type": "bytes32"
        }
      ],
      "name": "ChainlinkFulfilled",
      "type": "event"
    },
    {
      "anonymous": false,
      "inputs": [
        {
          "indexed": true,
          "internalType": "bytes32",
          "name": "id",
          "type": "bytes32"
        }
      ],
      "name": "ChainlinkRequested",
      "type": "event"
    },
    {
      "anonymous": false,
      "inputs": [
        {
          "indexed": false,
          "internalType": "string",
          "name": "nftRequestString",
          "type": "string"
        }
      ],
      "name": "RequestComplete",
      "type": "event"
    },
    {
      "inputs": [
        {
          "internalType": "address",
          "name": "forwarder",
          "type": "address"
        }
      ],
      "name": "isTrustedForwarder",
      "outputs": [
        {
          "internalType": "bool",
          "name": "",
          "type": "bool"
        }
      ],
      "stateMutability": "view",
      "type": "function",
      "constant": true
    },
    {
      "inputs": [],
      "name": "trustedForwarder",
      "outputs": [
        {
          "internalType": "address",
          "name": "",
          "type": "address"
        }
      ],
      "stateMutability": "view",
      "type": "function",
      "constant": true
    },
    {
      "inputs": [],
      "name": "truthTokens",
      "outputs": [
        {
          "internalType": "contract TruthToken",
          "name": "",
          "type": "address"
        }
      ],
      "stateMutability": "view",
      "type": "function",
      "constant": true
    },
    {
      "inputs": [
        {
          "internalType": "address",
          "name": "",
          "type": "address"
        }
      ],
      "name": "twitterAccountVerificationMap",
      "outputs": [
        {
          "internalType": "string",
          "name": "",
          "type": "string"
        }
      ],
      "stateMutability": "view",
      "type": "function",
      "constant": true
    },
    {
      "inputs": [
        {
          "internalType": "string",
          "name": "_tweet",
          "type": "string"
        },
        {
          "internalType": "string",
          "name": "_randid",
          "type": "string"
        }
      ],
      "name": "requestTwitterVerification",
      "outputs": [
        {
          "internalType": "bytes32",
          "name": "requestId",
          "type": "bytes32"
        }
      ],
      "stateMutability": "nonpayable",
      "type": "function"
    },
    {
      "inputs": [
        {
          "internalType": "bytes32",
          "name": "_requestId",
          "type": "bytes32"
        },
        {
          "internalType": "bytes32",
          "name": "_username",
          "type": "bytes32"
        }
      ],
      "name": "fulfillTwitterAccountRequest",
      "outputs": [],
      "stateMutability": "payable",
      "type": "function",
      "payable": true
    },
    {
      "inputs": [
        {
          "internalType": "address",
          "name": "_account",
          "type": "address"
        }
      ],
      "name": "getTwitterVerificationStatus",
      "outputs": [
        {
          "internalType": "string",
          "name": "",
          "type": "string"
        }
      ],
      "stateMutability": "view",
      "type": "function",
      "constant": true
    },
    {
      "inputs": [
        {
          "internalType": "address",
          "name": "_account",
          "type": "address"
        }
      ],
      "name": "vouchUser",
      "outputs": [],
      "stateMutability": "nonpayable",
      "type": "function"
    },
    {
      "inputs": [
        {
          "internalType": "address",
          "name": "_account",
          "type": "address"
        }
      ],
      "name": "getVouches",
      "outputs": [
        {
          "internalType": "uint256",
          "name": "",
          "type": "uint256"
        }
      ],
      "stateMutability": "view",
      "type": "function",
      "constant": true
    },
    {
      "inputs": [
        {
          "internalType": "address",
          "name": "_account",
          "type": "address"
        }
      ],
      "name": "truthBalance",
      "outputs": [
        {
          "internalType": "uint256",
          "name": "",
          "type": "uint256"
        }
      ],
      "stateMutability": "view",
      "type": "function",
      "constant": true
    },
    {
      "inputs": [
        {
          "internalType": "address",
          "name": "_trustedForwarder",
          "type": "address"
        }
      ],
      "name": "setTrustForwarder",
      "outputs": [],
      "stateMutability": "nonpayable",
      "type": "function"
    },
    {
      "inputs": [],
      "name": "versionRecipient",
      "outputs": [
        {
          "internalType": "string",
          "name": "",
          "type": "string"
        }
      ],
      "stateMutability": "pure",
      "type": "function",
      "constant": true
    },
    {
      "inputs": [],
      "name": "withdrawLink",
      "outputs": [],
      "stateMutability": "nonpayable",
      "type": "function"
    }
  ],
  "bytecode": "0x608060405260016004553480156200001657600080fd5b506040516200291038038062002910833981016040819052620000399162000202565b600780546001600160a01b031916331790556200005562000143565b600880546001600160a01b03191673c57b33452b4f7bb189bb5afae9cc4aba1f7a4fd81790557f62633734363631316562656534306133393839626265343965313261303262396009557f3734303166333138313237313438613839346330306332393265343836666664600a5567016345785d8a0000600b556040516a0155d84cc7d1f7db94000090620000ea90620001f4565b908152602001604051809103906000f0801580156200010d573d6000803e3d6000fd5b50600e80546001600160a01b039283166001600160a01b0319918216179091556006805493909216921691909117905562000234565b620001f273c89bd4e1632d3a43cb03aaad5262cbe4038bc5716001600160a01b03166338cc48316040518163ffffffff1660e01b815260040160206040518083038186803b1580156200019557600080fd5b505afa158015620001aa573d6000803e3d6000fd5b505050506040513d601f19601f82011682018060405250810190620001d0919062000202565b600280546001600160a01b0319166001600160a01b0392909216919091179055565b565b610b9d8062001d7383390190565b6000602082840312156200021557600080fd5b81516001600160a01b03811681146200022d57600080fd5b9392505050565b611b2f80620002446000396000f3fe6080604052600436106100c25760003560e01c80637da0a8771161007f578063d01e3c0411610059578063d01e3c041461024a578063ddf0b3da1461026a578063de5e527e1461028a578063df311df7146102aa57600080fd5b80637da0a877146101d35780638c2a94fc146101f15780638dc654a21461023557600080fd5b80632b460dfc146100c757806334c2e198146100fd5780633e302c831461011f578063486ff0cd1461015757806348edea1214610181578063572b6c0514610194575b600080fd5b3480156100d357600080fd5b506100e76100e23660046115fb565b6102ca565b6040516100f49190611671565b60405180910390f35b34801561010957600080fd5b5061011d6101183660046115fb565b610364565b005b34801561012b57600080fd5b50600e5461013f906001600160a01b031681565b6040516001600160a01b0390911681526020016100f4565b34801561016357600080fd5b506040805180820190915260018152603160f81b60208201526100e7565b61011d61018f366004611684565b6104b8565b3480156101a057600080fd5b506101c36101af3660046115fb565b6006546001600160a01b0391821691161490565b60405190151581526020016100f4565b3480156101df57600080fd5b506006546001600160a01b031661013f565b3480156101fd57600080fd5b5061022761020c3660046115fb565b6001600160a01b03166000908152600d602052604090205490565b6040519081526020016100f4565b34801561024157600080fd5b5061011d6106a6565b34801561025657600080fd5b506100e76102653660046115fb565b6107e0565b34801561027657600080fd5b5061011d6102853660046115fb565b61088c565b34801561029657600080fd5b506102276102a53660046115fb565b6108d4565b3480156102b657600080fd5b506102276102c5366004611749565b610958565b601060205260009081526040902080546102e3906117ad565b80601f016020809104026020016040519081016040528092919081815260200182805461030f906117ad565b801561035c5780601f106103315761010080835404028352916020019161035c565b820191906000526020600020905b81548152906001019060200180831161033f57829003601f168201915b505050505081565b336000908152601060205260409020805461037e906117ad565b151590506103c75760405162461bcd60e51b8152602060048201526011602482015270155cd95c881b9bdd081d995c9a599a5959607a1b60448201526064015b60405180910390fd5b6001600160a01b0381166000908152600d6020908152604080832033845260010190915290205460ff16156104305760405162461bcd60e51b815260206004820152600f60248201526e105b1c9958591e481d9bdd58da1959608a1b60448201526064016103be565b6001600160a01b0381166000908152600d6020908152604080832033845260010190915290205460ff166104b5576001600160a01b0381166000908152600d6020908152604080832080546001818101835582865284862090910180546001600160a01b031916339081179091558552908101909252909120805460ff191690911790555b50565b60008281526005602052604090205482906001600160a01b031633146105315760405162461bcd60e51b815260206004820152602860248201527f536f75726365206d75737420626520746865206f7261636c65206f6620746865604482015267081c995c5d595cdd60c21b60648201526084016103be565b60008181526005602052604080822080546001600160a01b03191690555182917f7cc135e0cebb02c3480ae5d74d377283180a2601f8f644edf7987b009316c63a91a26000838152600f60205260409020546001600160a01b031661059583610a85565b6001600160a01b038216600090815260106020908152604090912082516105c29391929190910190611527565b50600e5460405163a9059cbb60e01b81526001600160a01b038381166004830152678ac7230489e8000060248301529091169063a9059cbb90604401602060405180830381600087803b15801561061857600080fd5b505af115801561062c573d6000803e3d6000fd5b505050506040513d601f19601f8201168201806040525081019061065091906117e2565b507f463c511277010e89c9653089314c7a91266a1c7e48a8ea1a9a59f356e74aba9e604051610698906020808252600590820152642fbab9b2b960d91b604082015260600190565b60405180910390a150505050565b6007546001600160a01b031633146106d05760405162461bcd60e51b81526004016103be90611804565b6040516370a0823160e01b815230600482015273a36085f69e2889c224210f603d836748e7dc008890819063a9059cbb90339083906370a082319060240160206040518083038186803b15801561072657600080fd5b505afa15801561073a573d6000803e3d6000fd5b505050506040513d601f19601f8201168201806040525081019061075e9190611849565b6040516001600160e01b031960e085901b1681526001600160a01b0390921660048301526024820152604401602060405180830381600087803b1580156107a457600080fd5b505af11580156107b8573d6000803e3d6000fd5b505050506040513d601f19601f820116820180604052508101906107dc91906117e2565b5050565b6001600160a01b0381166000908152601060205260409020805460609190610807906117ad565b80601f0160208091040260200160405190810160405280929190818152602001828054610833906117ad565b80156108805780601f1061085557610100808354040283529160200191610880565b820191906000526020600020905b81548152906001019060200180831161086357829003601f168201915b50505050509050919050565b6007546001600160a01b031633146108b65760405162461bcd60e51b81526004016103be90611804565b600680546001600160a01b0319166001600160a01b03831617905550565b600e546040516370a0823160e01b81526001600160a01b03838116600483015260009216906370a082319060240160206040518083038186803b15801561091a57600080fd5b505afa15801561092e573d6000803e3d6000fd5b505050506040513d601f19601f820116820180604052508101906109529190611849565b92915050565b60008061096f600a54306348edea1260e01b610bbc565b90506109eb6040518060400160405280600381526020016219d95d60ea1b8152506109e3604051806080016040528060418152602001611ab96041913986604051806040016040528060078152602001662674776565743d60c81b8152508960405180602001604052806000815250610be1565b839190610ec6565b610a3c604051806040016040528060048152602001630e0c2e8d60e31b81525060405180604001604052806008815260200167757365726e616d6560c01b81525083610ec69092919063ffffffff16565b600854600b54610a57916001600160a01b0316908390610ee9565b600c8181556000918252600f602052604090912080546001600160a01b031916331790555491505092915050565b606060005b60208160ff16108015610abe5750828160ff1660208110610aad57610aad611862565b1a60f81b6001600160f81b03191615155b15610ad55780610acd8161188e565b915050610a8a565b60008160ff1667ffffffffffffffff811115610af357610af36116a6565b6040519080825280601f01601f191660200182016040528015610b1d576020820181803683370190505b509050600091505b60208260ff16108015610b595750838260ff1660208110610b4857610b48611862565b1a60f81b6001600160f81b03191615155b15610bb557838260ff1660208110610b7357610b73611862565b1a60f81b818360ff1681518110610b8c57610b8c611862565b60200101906001600160f81b031916908160001a90535081610bad8161188e565b925050610b25565b9392505050565b610bc46115ab565b610bcc6115ab565b610bd881868686610f7c565b95945050505050565b805182518451865188516060948a948a948a948a948a94600094909390929091610c0b91906118ae565b610c1591906118ae565b610c1f91906118ae565b610c2991906118ae565b67ffffffffffffffff811115610c4157610c416116a6565b6040519080825280601f01601f191660200182016040528015610c6b576020820181803683370190505b509050806000805b8851811015610ce357888181518110610c8e57610c8e611862565b01602001516001600160f81b0319168383610ca8816118c6565b945081518110610cba57610cba611862565b60200101906001600160f81b031916908160001a90535080610cdb816118c6565b915050610c73565b5060005b8751811015610d5757878181518110610d0257610d02611862565b01602001516001600160f81b0319168383610d1c816118c6565b945081518110610d2e57610d2e611862565b60200101906001600160f81b031916908160001a90535080610d4f816118c6565b915050610ce7565b5060005b8651811015610dcb57868181518110610d7657610d76611862565b01602001516001600160f81b0319168383610d90816118c6565b945081518110610da257610da2611862565b60200101906001600160f81b031916908160001a90535080610dc3816118c6565b915050610d5b565b5060005b8551811015610e3f57858181518110610dea57610dea611862565b01602001516001600160f81b0319168383610e04816118c6565b945081518110610e1657610e16611862565b60200101906001600160f81b031916908160001a90535080610e37816118c6565b915050610dcf565b5060005b8451811015610eb357848181518110610e5e57610e5e611862565b01602001516001600160f81b0319168383610e78816118c6565b945081518110610e8a57610e8a611862565b60200101906001600160f81b031916908160001a90535080610eab816118c6565b915050610e43565b50909d9c50505050505050505050505050565b6080830151610ed59083610fc2565b6080830151610ee49082610fc2565b505050565b600454600090610efa8160016118ae565b600455835160408086015160808701515191516000936320214ca360e11b93610f329386938493923092918a916001916024016118e1565b60408051601f198184030181529190526020810180516001600160e01b03166001600160e01b0319909316929092179091529050610f7286838684610fd9565b9695505050505050565b610f846115ab565b610f948560800151610100611146565b50508284526001600160a01b03821660208501526001600160e01b031981166040850152835b949350505050565b610fcf82600383516111ab565b610ee482826112c0565b6040516bffffffffffffffffffffffff193060601b1660208201526034810184905260009060540160408051808303601f1901815282825280516020918201206000818152600590925291812080546001600160a01b0319166001600160a01b038a1617905590925082917fb5e6e01e79f91267dc17b4e6314d5d4d03593d2ceee0fbb452b750bd70ea5af99190a2600254604051630200057560e51b81526001600160a01b0390911690634000aea09061109c90889087908790600401611949565b602060405180830381600087803b1580156110b657600080fd5b505af11580156110ca573d6000803e3d6000fd5b505050506040513d601f19601f820116820180604052508101906110ee91906117e2565b610fba5760405162461bcd60e51b815260206004820152602360248201527f756e61626c6520746f207472616e73666572416e6443616c6c20746f206f7261604482015262636c6560e81b60648201526084016103be565b604080518082019091526060815260006020820152611166602083611970565b1561118e57611176602083611970565b611181906020611992565b61118b90836118ae565b91505b506020828101829052604080518085526000815290920101905290565b60178167ffffffffffffffff16116111d6576111d08360e0600585901b1683176112e7565b50505050565b60ff8167ffffffffffffffff1611611214576111fd836018611fe0600586901b16176112e7565b506111d08367ffffffffffffffff8316600161130c565b61ffff8167ffffffffffffffff16116112535761123c836019611fe0600586901b16176112e7565b506111d08367ffffffffffffffff8316600261130c565b63ffffffff8167ffffffffffffffff16116112945761127d83601a611fe0600586901b16176112e7565b506111d08367ffffffffffffffff8316600461130c565b6112a983601b611fe0600586901b16176112e7565b506111d08367ffffffffffffffff8316600861130c565b604080518082019091526060815260006020820152610bb583846000015151848551611332565b604080518082019091526060815260006020820152610bb5838460000151518461141c565b604080518082019091526060815260006020820152610fba848560000151518585611478565b604080518082019091526060815260006020820152825182111561135557600080fd5b602085015161136483866118ae565b111561139757611397856113878760200151878661138291906118ae565b6114f9565b6113929060026119a9565b611510565b6000808651805187602083010193508088870111156113b65787860182525b505050602084015b602084106113f657805182526113d56020836118ae565b91506113e26020826118ae565b90506113ef602085611992565b93506113be565b51815160001960208690036101000a019081169019919091161790525083949350505050565b6040805180820190915260608152600060208201528360200151831061145157611451848560200151600261139291906119a9565b83518051602085830101848153508085141561146e576001810182525b5093949350505050565b604080518082019091526060815260006020820152602085015161149c85846118ae565b11156114b0576114b08561138786856118ae565b600060016114c084610100611aac565b6114ca9190611992565b90508551838682010185831982511617815250805184870111156114ee5783860181525b509495945050505050565b60008183111561150a575081610952565b50919050565b815161151c8383611146565b506111d083826112c0565b828054611533906117ad565b90600052602060002090601f016020900481019282611555576000855561159b565b82601f1061156e57805160ff191683800117855561159b565b8280016001018555821561159b579182015b8281111561159b578251825591602001919060010190611580565b506115a79291506115e6565b5090565b6040805160a0810182526000808252602080830182905282840182905260608084018390528451808601909552845283015290608082015290565b5b808211156115a757600081556001016115e7565b60006020828403121561160d57600080fd5b81356001600160a01b0381168114610bb557600080fd5b6000815180845260005b8181101561164a5760208185018101518683018201520161162e565b8181111561165c576000602083870101525b50601f01601f19169290920160200192915050565b602081526000610bb56020830184611624565b6000806040838503121561169757600080fd5b50508035926020909101359150565b634e487b7160e01b600052604160045260246000fd5b600082601f8301126116cd57600080fd5b813567ffffffffffffffff808211156116e8576116e86116a6565b604051601f8301601f19908116603f01168101908282118183101715611710576117106116a6565b8160405283815286602085880101111561172957600080fd5b836020870160208301376000602085830101528094505050505092915050565b6000806040838503121561175c57600080fd5b823567ffffffffffffffff8082111561177457600080fd5b611780868387016116bc565b9350602085013591508082111561179657600080fd5b506117a3858286016116bc565b9150509250929050565b600181811c908216806117c157607f821691505b6020821081141561150a57634e487b7160e01b600052602260045260246000fd5b6000602082840312156117f457600080fd5b81518015158114610bb557600080fd5b60208082526025908201527f4f6e6c79204f776e65722063616e20706572666f726d2074686973206f70657260408201526430ba34b7b760d91b606082015260800190565b60006020828403121561185b57600080fd5b5051919050565b634e487b7160e01b600052603260045260246000fd5b634e487b7160e01b600052601160045260246000fd5b600060ff821660ff8114156118a5576118a5611878565b60010192915050565b600082198211156118c1576118c1611878565b500190565b60006000198214156118da576118da611878565b5060010190565b6001600160a01b0389811682526020820189905260408201889052861660608201526001600160e01b03198516608082015260a0810184905260c0810183905261010060e0820181905260009061193a83820185611624565b9b9a5050505050505050505050565b60018060a01b0384168152826020820152606060408201526000610bd86060830184611624565b60008261198d57634e487b7160e01b600052601260045260246000fd5b500690565b6000828210156119a4576119a4611878565b500390565b60008160001904831182151516156119c3576119c3611878565b500290565b600181815b80851115611a035781600019048211156119e9576119e9611878565b808516156119f657918102915b93841c93908002906119cd565b509250929050565b600082611a1a57506001610952565b81611a2757506000610952565b8160018114611a3d5760028114611a4757611a63565b6001915050610952565b60ff841115611a5857611a58611878565b50506001821b610952565b5060208310610133831016604e8410600b8410161715611a86575081810a610952565b611a9083836119c8565b8060001904821115611aa457611aa4611878565b029392505050565b6000610bb58383611a0b56fe68747470733a2f2f7468652d636f6c6c6563746976652d74727574682e6865726f6b756170702e636f6d2f747769747465722f7665726966793f72616e6469643da2646970667358221220d4348fcb9ca1d205fd62723014f9fab4a153dbda5e8187f4f5cfefc182bcc5b564736f6c6343000809003360806040523480156200001157600080fd5b5060405162000b9d38038062000b9d83398101604081905262000034916200024b565b6040518060400160405280600a8152602001692a393aba342a37b5b2b760b11b815250604051806040016040528060038152602001621510d560ea1b81525081600390805190602001906200008b929190620001a5565b508051620000a1906004906020840190620001a5565b505050620000b63382620000bd60201b60201c565b50620002c9565b6001600160a01b038216620001185760405162461bcd60e51b815260206004820152601f60248201527f45524332303a206d696e7420746f20746865207a65726f206164647265737300604482015260640160405180910390fd5b80600260008282546200012c919062000265565b90915550506001600160a01b038216600090815260208190526040812080548392906200015b90849062000265565b90915550506040518181526001600160a01b038316906000907fddf252ad1be2c89b69c2b068fc378daa952ba7f163c4a11628f55a4df523b3ef9060200160405180910390a35050565b828054620001b3906200028c565b90600052602060002090601f016020900481019282620001d7576000855562000222565b82601f10620001f257805160ff191683800117855562000222565b8280016001018555821562000222579182015b828111156200022257825182559160200191906001019062000205565b506200023092915062000234565b5090565b5b8082111562000230576000815560010162000235565b6000602082840312156200025e57600080fd5b5051919050565b600082198211156200028757634e487b7160e01b600052601160045260246000fd5b500190565b600181811c90821680620002a157607f821691505b60208210811415620002c357634e487b7160e01b600052602260045260246000fd5b50919050565b6108c480620002d96000396000f3fe608060405234801561001057600080fd5b50600436106100a95760003560e01c80633950935111610071578063395093511461012357806370a082311461013657806395d89b411461015f578063a457c2d714610167578063a9059cbb1461017a578063dd62ed3e1461018d57600080fd5b806306fdde03146100ae578063095ea7b3146100cc57806318160ddd146100ef57806323b872dd14610101578063313ce56714610114575b600080fd5b6100b66101c6565b6040516100c39190610701565b60405180910390f35b6100df6100da366004610772565b610258565b60405190151581526020016100c3565b6002545b6040519081526020016100c3565b6100df61010f36600461079c565b61026e565b604051601281526020016100c3565b6100df610131366004610772565b61031d565b6100f36101443660046107d8565b6001600160a01b031660009081526020819052604090205490565b6100b6610359565b6100df610175366004610772565b610368565b6100df610188366004610772565b610401565b6100f361019b3660046107fa565b6001600160a01b03918216600090815260016020908152604080832093909416825291909152205490565b6060600380546101d59061082d565b80601f01602080910402602001604051908101604052809291908181526020018280546102019061082d565b801561024e5780601f106102235761010080835404028352916020019161024e565b820191906000526020600020905b81548152906001019060200180831161023157829003601f168201915b5050505050905090565b600061026533848461040e565b50600192915050565b600061027b848484610532565b6001600160a01b0384166000908152600160209081526040808320338452909152902054828110156103055760405162461bcd60e51b815260206004820152602860248201527f45524332303a207472616e7366657220616d6f756e74206578636565647320616044820152676c6c6f77616e636560c01b60648201526084015b60405180910390fd5b610312853385840361040e565b506001949350505050565b3360008181526001602090815260408083206001600160a01b03871684529091528120549091610265918590610354908690610868565b61040e565b6060600480546101d59061082d565b3360009081526001602090815260408083206001600160a01b0386168452909152812054828110156103ea5760405162461bcd60e51b815260206004820152602560248201527f45524332303a2064656372656173656420616c6c6f77616e63652062656c6f77604482015264207a65726f60d81b60648201526084016102fc565b6103f7338585840361040e565b5060019392505050565b6000610265338484610532565b6001600160a01b0383166104705760405162461bcd60e51b8152602060048201526024808201527f45524332303a20617070726f76652066726f6d20746865207a65726f206164646044820152637265737360e01b60648201526084016102fc565b6001600160a01b0382166104d15760405162461bcd60e51b815260206004820152602260248201527f45524332303a20617070726f766520746f20746865207a65726f206164647265604482015261737360f01b60648201526084016102fc565b6001600160a01b0383811660008181526001602090815260408083209487168084529482529182902085905590518481527f8c5be1e5ebec7d5bd14f71427d1e84f3dd0314c0f7b2291e5b200ac8c7c3b925910160405180910390a3505050565b6001600160a01b0383166105965760405162461bcd60e51b815260206004820152602560248201527f45524332303a207472616e736665722066726f6d20746865207a65726f206164604482015264647265737360d81b60648201526084016102fc565b6001600160a01b0382166105f85760405162461bcd60e51b815260206004820152602360248201527f45524332303a207472616e7366657220746f20746865207a65726f206164647260448201526265737360e81b60648201526084016102fc565b6001600160a01b038316600090815260208190526040902054818110156106705760405162461bcd60e51b815260206004820152602660248201527f45524332303a207472616e7366657220616d6f756e7420657863656564732062604482015265616c616e636560d01b60648201526084016102fc565b6001600160a01b038085166000908152602081905260408082208585039055918516815290812080548492906106a7908490610868565b92505081905550826001600160a01b0316846001600160a01b03167fddf252ad1be2c89b69c2b068fc378daa952ba7f163c4a11628f55a4df523b3ef846040516106f391815260200190565b60405180910390a350505050565b600060208083528351808285015260005b8181101561072e57858101830151858201604001528201610712565b81811115610740576000604083870101525b50601f01601f1916929092016040019392505050565b80356001600160a01b038116811461076d57600080fd5b919050565b6000806040838503121561078557600080fd5b61078e83610756565b946020939093013593505050565b6000806000606084860312156107b157600080fd5b6107ba84610756565b92506107c860208501610756565b9150604084013590509250925092565b6000602082840312156107ea57600080fd5b6107f382610756565b9392505050565b6000806040838503121561080d57600080fd5b61081683610756565b915061082460208401610756565b90509250929050565b600181811c9082168061084157607f821691505b6020821081141561086257634e487b7160e01b600052602260045260246000fd5b50919050565b6000821982111561088957634e487b7160e01b600052601160045260246000fd5b50019056fea26469706673582212201b802a8bd926f28442a3a8f65575a6aacd86cd9627eeedf0b65a49a0a761594a64736f6c63430008090033",
  "immutableReferences": {},
  "source": "// SPDX-License-Identifier: MIT\r\npragma solidity ^0.8.7;\r\n\r\nimport \"@chainlink/contracts/src/v0.8/ChainlinkClient.sol\";\r\nimport \"@openzeppelin/contracts/token/ERC20/ERC20.sol\";\r\nimport \"@opengsn/contracts/src/BaseRelayRecipient.sol\";\r\nimport \"./TruthToken.sol\";\r\n\r\n/**\r\n * THIS IS AN EXAMPLE CONTRACT WHICH USES HARDCODED VALUES FOR CLARITY.\r\n * PLEASE DO NOT USE THIS CODE IN PRODUCTION.\r\n */\r\nstruct Set {\r\n    address[] values;\r\n    mapping(address => bool) is_in;\r\n}\r\n\r\ncontract TCT is ChainlinkClient, BaseRelayRecipient {\r\n    using Chainlink for Chainlink.Request;\r\n\r\n    address private owner;\r\n    address private oracle;\r\n    bytes32 private boolJobId;\r\n    bytes32 private stringJobId;\r\n    uint256 private fee;\r\n    bytes32 private requestIdentifier;\r\n    mapping(address => Set) private vouchesMap;\r\n\r\n    TruthToken public truthTokens;\r\n\r\n    mapping(bytes32 => address) internal requestTwitterAccountmap;\r\n    mapping(address => string) public twitterAccountVerificationMap;\r\n\r\n    event RequestComplete(string nftRequestString);\r\n\r\n    constructor(address _trustedForwarder) {\r\n        owner = msg.sender;\r\n\r\n        setPublicChainlinkToken();\r\n        oracle = 0xc57B33452b4F7BB189bB5AfaE9cc4aBa1f7a4FD8;\r\n        boolJobId = \"bc746611ebee40a3989bbe49e12a02b9\";\r\n        stringJobId = \"7401f318127148a894c00c292e486ffd\";\r\n        fee = 0.1 * 10**18; // (Varies by network and job)\r\n\r\n        truthTokens = new TruthToken(1614317 * 10**18); // Initial mint of Truth Tokens\r\n\r\n        _setTrustedForwarder(_trustedForwarder);\r\n    }\r\n    modifier onlyOwner() {\r\n        require(owner == msg.sender, \"Only Owner can perform this operation\");\r\n        _;\r\n    }\r\n\r\n    // Twitter Account Verification\r\n    function requestTwitterVerification(\r\n        string memory _tweet,\r\n        string memory _randid\r\n    ) public returns (bytes32 requestId) {\r\n        Chainlink.Request memory request = buildChainlinkRequest(\r\n            stringJobId,\r\n            address(this),\r\n            this.fulfillTwitterAccountRequest.selector\r\n        );\r\n        request.add(\r\n            \"get\",\r\n            strConcat(\r\n                \"https://the-collective-truth.herokuapp.com/twitter/verify?randid=\",\r\n                _randid,\r\n                \"&tweet=\",\r\n                _tweet,\r\n                \"\"\r\n            )\r\n        );\r\n        request.add(\"path\", \"username\");\r\n        requestIdentifier = sendChainlinkRequestTo(oracle, request, fee);\r\n        requestTwitterAccountmap[requestIdentifier] = msg.sender;\r\n        return requestIdentifier;\r\n    }\r\n\r\n    function fulfillTwitterAccountRequest(bytes32 _requestId, bytes32 _username)\r\n        public\r\n        payable\r\n        recordChainlinkFulfillment(_requestId)\r\n    {\r\n        address _user = requestTwitterAccountmap[_requestId];\r\n        twitterAccountVerificationMap[_user] = bytes32ToString(_username); // update Twitter Account username\r\n        truthTokens.transfer(_user, 10**19); // Joining Bonus\r\n        emit RequestComplete(\"_user\"); // event to be listened by the client\r\n    }\r\n\r\n    function getTwitterVerificationStatus(address _account)\r\n        public\r\n        view\r\n        returns (string memory)\r\n    {\r\n        return twitterAccountVerificationMap[_account];\r\n    }\r\n\r\n    // Vouching for users\r\n    function vouchUser(address _account) public {        \r\n        require(\r\n            bytes(twitterAccountVerificationMap[msg.sender]).length != 0,\r\n            \"User not verified\"\r\n        );\r\n        require(\r\n            vouchesMap[_account].is_in[msg.sender] == false,\r\n            \"Already vouched\"\r\n        );\r\n\r\n        \r\n        if (vouchesMap[_account].is_in[msg.sender] == false) {\r\n            vouchesMap[_account].values.push(msg.sender);\r\n            vouchesMap[_account].is_in[msg.sender] = true;\r\n        }\r\n    }\r\n\r\n    function getVouches(address _account) public view returns (uint256) {\r\n        return vouchesMap[_account].values.length;\r\n    }\r\n\r\n    // Truth Tokens\r\n    function truthBalance(address _account) public view returns (uint256) {\r\n        return truthTokens.balanceOf(_account);\r\n    }    \r\n\r\n    // UTILS\r\n    function strConcat(\r\n        string memory _a,\r\n        string memory _b,\r\n        string memory _c,\r\n        string memory _d,\r\n        string memory _e\r\n    ) internal pure returns (string memory) {\r\n        bytes memory _ba = bytes(_a);\r\n        bytes memory _bb = bytes(_b);\r\n        bytes memory _bc = bytes(_c);\r\n        bytes memory _bd = bytes(_d);\r\n        bytes memory _be = bytes(_e);\r\n        string memory abcde = new string(\r\n            _ba.length + _bb.length + _bc.length + _bd.length + _be.length\r\n        );\r\n        bytes memory babcde = bytes(abcde);\r\n        uint256 k = 0;\r\n        uint256 i = 0;\r\n        for (i = 0; i < _ba.length; i++) babcde[k++] = _ba[i];\r\n        for (i = 0; i < _bb.length; i++) babcde[k++] = _bb[i];\r\n        for (i = 0; i < _bc.length; i++) babcde[k++] = _bc[i];\r\n        for (i = 0; i < _bd.length; i++) babcde[k++] = _bd[i];\r\n        for (i = 0; i < _be.length; i++) babcde[k++] = _be[i];\r\n        return string(babcde);\r\n    }\r\n\r\n    function bytes32ToString(bytes32 _bytes32)\r\n        internal\r\n        pure\r\n        returns (string memory)\r\n    {\r\n        uint8 i = 0;\r\n        while (i < 32 && _bytes32[i] != 0) {\r\n            i++;\r\n        }\r\n        bytes memory bytesArray = new bytes(i);\r\n        for (i = 0; i < 32 && _bytes32[i] != 0; i++) {\r\n            bytesArray[i] = _bytes32[i];\r\n        }\r\n        return string(bytesArray);\r\n    }\r\n\r\n    // BICONOMY\r\n    function setTrustForwarder(address _trustedForwarder) public onlyOwner {\r\n        _setTrustedForwarder(_trustedForwarder);\r\n    }\r\n\r\n    function versionRecipient() external pure override returns (string memory) {\r\n        return \"1\";\r\n    }\r\n\r\n\r\n    function withdrawLink() external onlyOwner{        \r\n        ERC20 tokenContract = ERC20(0xa36085F69e2889c224210F603D836748e7dC0088);\r\n        tokenContract.transfer(\r\n            msg.sender,\r\n            tokenContract.balanceOf(address(this))\r\n        );\r\n    }\r\n}\r\n",
  "sourcePath": "/home/harish/Documents/Development/TCT/web-client/Truffle/contracts/TCT.sol",
  "compiler": {
    "name": "solc",
    "version": "0.8.9+commit.e5eed63a.Emscripten.clang"
  },
  "schemaVersion": "3.4.4",
  "updatedAt": "2022-01-30T10:56:05.609Z",
  "networkType": "ethereum",
  "devdoc": {
    "kind": "dev",
    "methods": {},
    "version": 1
  },
  "userdoc": {
    "kind": "user",
    "methods": {
      "isTrustedForwarder(address)": {
        "notice": "return if the forwarder is trusted to forward relayed transactions to us. the forwarder is required to verify the sender's signature, and verify the call is not a replay."
      }
    },
    "version": 1
  }
}